:100000000C942A000C9447000C9447000C94470071
:100010000C9447000C9447000C9447000C94470044
:100020000C9447000C9447000C9447000C94E70193
:100030000C9447000C9449000C9472000C944700F7
:100040000C9447000C9447000C9447000C94470014
:100050000C94470011241FBECFE5D8E0DEBFCDBF12
:1000600010E0A0E6B0E0E4EFF6E002C005900D92EB
:10007000AE3CB107D9F711E0AEECB0E001C01D9283
:10008000A93EB107E1F70E94FE010C9478030C949D
:1000900000001F920F920FB60F9211242F938F938F
:1000A0009F93EF93FF939BB12CB1E091E601EF5F3B
:1000B0008091E701E81711F482E008C0892F887168
:1000C000E093E601F0E0EC51FF4F20838093E801DC
:1000D000FF91EF919F918F912F910F900FBE0F90F5
:1000E0001F9018951F920F920FB60F9211248F93A5
:1000F0009F93EF93FF939091E4018091E50198170E
:1001000061F0E091E501EF5FEF70E093E501F0E071
:10011000EC52FF4F80818CB907C0559881E090E088
:100120009093CF008093CE00FF91EF919F918F919C
:100130000F900FBE0F901F9018959C011092E40134
:100140001092E5011092E6011092E70197FF03C0BB
:1001500082E08BB93F7730BD29B988E98AB986E852
:1001600080BD08959091E6018091E701981719F4F8
:1001700020E031E011C0E091E701EF5FE093E7019B
:10018000F0E0EC51FF4F30812091E801922F80E0A8
:10019000AC01430F511D9A01C9010895282F909178
:1001A000E4019F5F9F708091E5019817E1F3E92FCB
:1001B000F0E0EC52FF4F20839093E4011092CF00C7
:1001C0001092CE00559A0895CF93DF93EC0103C0AF
:1001D00021960E94CE0088818823D1F7DF91CF91AC
:1001E0000895662311F0C09A01C0C098C198BB9AC7
:1001F000BC9ABD9ABE9AC698C598C498C39887FD04
:10020000C69A86FDC59A85FDC49A84FDC39AC29A92
:1002100000C0C298C698C598C498C39883FDC69A72
:1002200082FDC59A81FDC49A80FDC39AC29A00C01E
:10023000C298C39AC49AC59AC69A0895882311F0A1
:10024000C09A01C0C098C19ABB98BC98BD98BE988E
:10025000C29A00C0B39B02C080E101C080E0B499A3
:100260008062B5998064B6998068C29800C0C29ACD
:1002700000C0B3998160B4998260B5998460B699E1
:100280008860C298089580E00E941E0187FDFBCF20
:1002900088E090E00197F1F780E00E941E01089548
:1002A0001F93182F0E944301812F60E00E94F100EC
:1002B0001F9108951F93182F0E944301812F61E021
:1002C0000E94F1001F910895662311F4805801C027
:1002D00080540E94500108950E94430190E00895C7
:1002E00081E00E945001089582E00E94500108952B
:1002F0001F93182F0E9443011A3049F4803410F0E4
:1003000080E001C080E480580E94500104C0812F29
:1003100061E00E94F1001F910895CF93DF93EC01FB
:1003200002C00E94780189918823D9F7DF91CF918B
:100330000895CF93DF93EC0102C00E947801FE0183
:10034000219684918823C9F7DF91CF9108951F9357
:10035000182FB89AB99ABA9ABB9ABC9ABD9ABE9A03
:1003600080E09AEF0197F1F7C49AC39AC29A00C04D
:10037000C29880E09EE40197F1F7C29A00C0C2984B
:1003800080E091E0FC013197F1F7C29A00C0C29879
:10039000FC013197F1F7C398C29A00C0C298019747
:1003A000F1F788E20E94500188E00E9450010E940B
:1003B000700186E00E945001812F0E9450011F9120
:1003C000089512BE85E083BF81E089BF08951F9222
:1003D0000F920FB60F9211248F939F938091D200AA
:1003E0009091D30001969093D3008093D2009F9177
:1003F0008F910F900FBE0F901F901895AF92BF92E4
:10040000CF92DF92EF92FF920F931F93DF93CF93E0
:10041000CDB7DEB764970FB6F894DEBF0FBECDBF81
:100420008CE00E94A7010E94700112BE85E083BF8C
:1004300081E089BF789487E690E00E949D0080E685
:1004400090E00E94E4005E010894A11CB11CEE241F
:10045000FF24CC24DD2400E010E08091D2009091B4
:10046000D300CD9701F50F5F1F4F1092D30010926C
:10047000D2000C331105B9F40894E11CF11C8CE393
:10048000E816F10471F40894C11CD11C88E1C81667
:10049000D10429F4EE24FF24CC24DD2402C0EE2470
:1004A000FF2400E010E082E060E00E94640189E641
:1004B00090E00E948D0184E061E00E946401C60129
:1004C0006AE070E00E942003CB01B5014AE050E0F1
:1004D0000E944703C5010E948D0185E061E00E94F2
:1004E0006401C6016AE070E00E942003B5014AE0A1
:1004F00050E00E944703C5010E948D0186E061E043
:100500000E94640187E790E00E948D0187E061E02E
:100510000E946401C7016AE070E00E942003CB01E1
:10052000B5014AE050E00E944703C5010E948D01D9
:1005300088E061E00E946401C7016AE070E00E9407
:100540002003B5014AE050E00E944703C5010E9424
:100550008D0189E061E00E94640187E790E00E94DC
:100560008D018AE061E00E946401C8016AE070E0E8
:100570000E942003CB01B5014AE050E00E944703EE
:10058000C5010E948D018BE061E00E946401C801F9
:100590006AE070E00E942003B5014AE050E00E944A
:1005A0004703C5010E948D010E94B200882309F40F
:1005B00054CF883469F40894C11CD11C89E790E0B9
:1005C0000E94E40088E1C816D10409F046CF35C086
:1005D000833551F40F5F1F4F0C33110511F400E008
:1005E00010E08BE890E00DC08D3471F40894E11CAC
:1005F000F11C8CE3E816F10411F4EE24FF248FE9DA
:1006000090E00E94E40029CF813531F483EB90E043
:100610000E94E40013BE21CF873539F48BEB90E0C4
:100620000E94E40085E083BF18CF823509F015CF22
:1006300084EC90E00E94E4000ACFCC24DD240DCFAE
:1006400097FB092E07260AD077FD04D00CD006D0E0
:1006500000201AF4709561957F4F0895F6F79095F4
:1006600081959F4F0895AA1BBB1B51E107C0AA1F8C
:10067000BB1FA617B70710F0A61BB70B881F991F43
:100680005A95A9F780959095BC01CD010895FB017D
:100690009F01E8944230C4F04532B4F44A3029F462
:1006A00097FB1EF4909581959F4F642F77270E94AA
:1006B0003303805D8A330CF0895D8193CB01009711
:1006C000A1F716F45DE251931082C9010C946803FE
:1006D000DC01FC01672F71917723E1F7329704C0A9
:1006E0007C916D9370836291AE17BF07C8F3089534
:0406F000F894FFCFAC
:1006F4005365742054696D65004469676974616C5D
:1007040020436C6F636B003A00496E6372656D65DC
:100714006E7420486F7572200A0D00496E6372650D
:100724006D656E74205365636F6E64200A0D004915
:100734006E6372656D656E74204D696E75746520A7
:100744000A0D0053746F70200A0D005374617274A3
:0E075400200A0D002052657365740A0D000026
:00000001FF
